:100000002022222222223621222222222222227071
:1000100020222222221261030263200007263621B9
:1000200070200017111171003607002222222222AF
:100030006103632000072636217020001711110785
:1000400036076020222262132222222270411102EE
:1000500002367761610313272222620322222222C1
:100060007140367711222222362122222202176481
:1000700073113621702222222222142687FFFFFFCD
:00000001FF
