:100000003607362766736073656233333333336381
:100010006073222222163333333017331136002215
:1000200022222222110760132100170277171700DE
:100030002222222222113620300602706062130230
:100040000702701111110760730020222222221270
:10005000363006027060621302070270111171607F
:100060007300062222223621222222021714212086
:100070006073171636307122222236202222221275
:100080000764731721222262132222222270413632
:10009000176113022722222222426172F8FFFFFF1A
:00000001FF
