:100000000220226221220273612122220273626194
:10001000000012113107006011110200002011735D
:1000200021226220222222127340361722622022CD
:1000300031076200241173003617112216222202A2
:1000400073411106002011117300001611210000E8
:100050000012311761000024112122222222626144
:100060000012310760110200002222222222121106
:1000700073612031071602002011310700060000CD
:100080000000002020111111111111310700000092
:100090000000606300001211310706002011117387
:1000A0000070006011210030171106202011310767
:1000B0003660111102003017161121000073111162
:1000C00017222222226220222231076011023017D9
:1000D0006130333107647311111111111111113194
:1000E0002722222222423617730000361736272293
:1000F00022226220222222127330433617353333F4
:1001000033336321300700002011111161200000FA
:100110002060731111113107222222222200006077
:100120003617511111113100000060111102003019
:1001300017116100000212111173000030333333C4
:1001400033631111111112060020111173000016F2
:1001500011210000001231070613732022222222EF
:100160006220222222222231171111610000121175
:1001700031070060111102000020117300001631D8
:100180000073112222222222061273600000000056
:100190000000021211111111111173000000000072
:1001A00000360600201111736000001211310700A3
:1001B0000700161102007312110600131173600379
:1001C0001611210000736111110200301711711115
:1001D000111111115136777060232222222222063A
:1001E0002222222222022222222222123107360633
:1001F0000012117300601121000000202011113144
:10020000070060630000121131070600201111730E
:1002100000700060112100301711062020113107F5
:1002200036601111020030171611210000731111F0
:100230001711111161002011310700161102000081
:100240000002121111731106201173001621000013
:1002500000021211117300003606002011117360A4
:10026000000012113107060020111173000700363B
:100270001706127361631111020030171171111109
:100280001111171111111121222222226220222282
:100290002222626100123107601102000022222234
:1002A000222212117361203107160200201131073A
:1002B00000161102007311610020000020111111BD
:1002C000117300000000600012310760111202007B
:1002D0007311313333333333630020113107001688
:1002E00011020000000212111173000036060020F6
:1002F000111173600000121131070007001611027E
:1003000000731161000212117300000060112100DE
:1003100030171106001211110230070000001611EB
:1003200002007311610020111111112100000073EE
:1003300011111161031611210000736111110200E6
:1003400030171171601111112100000030171111C7
:1003500011112222222222620020113107001611DF
:100360000200000002121111730000360600201175
:10037000117360000012113107000700161102000E
:10038000731161000212117300000060112100302E
:100390001711060012111102300700000016110299
:1003A000007311610020111111112100000073115F
:1003B0001111610316112100007361111102003047
:1003C0001711716011111121000000301711111166
:1003D000112222222222620000002020111111117C
:1003E0007300000060630000121131070600201145
:1003F00011730070006011210030171106202011C8
:100400003107000000161102007311610020111164
:100410002100730000006011210030171106001246
:100420001111111102000030171111113660111154
:100430000200301716112100007311110716111157
:10044000110200000073111111313363000000200C
:10045000111111210600000013111111367711112D
:1004600011610000000000000212111111111111A0
:100470007376000000000000360600201111736042
:100480000000121131070600201111730007003619
:1004900017061273616311110200301711711111E7
:1004A00011367711111161731111733107000000BA
:1004B00000003617711111111111F7FFFFFFFFFF37
:00000001FF
